:020000040800F2
:1000000000280020C10100081102000811020008A8
:10001000110200081102000811020008000000008F
:1000200000000000000000000000000011020008B5
:10003000110200080000000011020008110200086F
:100040001102000811020008110200081102000844
:100050001102000811020008110200081102000834
:100060001102000811020008110200081102000824
:100070001102000811020008110200081102000814
:100080001102000811020008110200081102000804
:1000900011020008110200081102000811020008F4
:1000A00011020008110200081102000811020008E4
:1000B00011020008110200081102000811020008D4
:1000C00011020008110200081102000811020008C4
:1000D00011020008110200081102000811020008B4
:1000E00011020008110200080000000011020008BF
:1000F0001102000811020008110200081102000894
:100100001102000811020008110200081102000883
:100110001102000811020008110200081102000873
:100120001102000811020008110200081102000863
:1001300010B5054C237833B9044B13B10448AFF321
:1001400000800123237010BD00000020000000008B
:100150005C02000808B5034B1BB103490348AFF329
:10016000008008BD00000000040000205C020008C0
:1001700080B400AF0F4B1B680E4A43F004031360BA
:100180000D4B1B680C4A23F4700313600A4B1B6869
:10019000094A43F400131360084B1B68074A43F4F1
:1001A00000531360054B1B68044A23F4005313608B
:1001B000F2E700BF18100240040801400C10024092
:1001C0000D488546AFF300800C480D490D4A0023C9
:1001D00002E0D458C4500433C4188C42F9D30A4AFC
:1001E0000A4C002301E013600432A242FBD300F06A
:1001F00011F8FFF7BDFFFEE70028002000000020F7
:10020000000000207C020008000000201C000020EC
:10021000FEE7000070B500250C4E0D4CA41BA41089
:10022000A54209D100F01AF800250A4E0A4CA41B79
:10023000A410A54205D170BD56F825309847013568
:10024000EEE756F8253098470135F2E774020008CA
:10025000740200087402000878020008F8B500BFB4
:10026000F8BC08BC9E467047F8B500BFF8BC08BC97
:040270009E467047EF
:040274005501000828
:040278003101000848
:04000005080001C12D
:00000001FF
